:020000040810E2
:100000000080041015391008B50B1008B70B100844
:10001000B90B1008BB0B1008BD0B10080000000046
:10002000000000000000000000000000BF0B1008EE
:10003000C10B100800000000C30B1008C50B10080E
:1000400065391008653910086539100865391008D8
:1000500065391008653910086539100865391008C8
:1000600065391008653910086539100865391008B8
:1000700065391008653910086539100865391008A8
:100080006539100865391008653910086539100898
:100090006539100865391008653910086539100888
:1000A0006539100865391008653910086539100878
:1000B000CD0B10086539100865391008653910082E
:1000C0006539100865391008653910086539100858
:1000D0006539100865391008653910086539100848
:1000E00065391008653910080000000065391008EE
:1000F0006539100865391008653910086539100828
:100100006539100865391008653910086539100817
:100110006539100865391008653910086539100807
:1001200065391008653910086539100865391008F7
:1001300065391008653910086539100865391008E7
:100140006539100865391008000000000000000043
:1001500065391008653910086539100865391008C7
:1001600065391008653910086539100865391008B7
:10017000653910086539100865391008000000005D
:100180006539100865391008653910086539100897
:100190006539100865391008653910086539100887
:1001A0006539100865391008653910086539100877
:1001B0006539100865391008653910086539100867
:1001C0006539100865391008653910086539100857
:1001D0006539100865391008653910086539100847
:1001E0006539100865391008653910086539100837
:1001F0006539100865391008653910086539100827
:100200006539100865391008653910086539100816
:100210006539100865391008653910086539100806
:1002200065391008653910086539100800000000AC
:1002300065391008653910086539100865391008E6
:1002400065391008653910086539100865391008D6
:1002500065391008653910086539100865391008C6
:1002600065391008653910086539100865391008B6
:1002700065391008653910086539100865391008A6
:10028000653910086539100865391008000000004C
:080290006539100865391008FA
:1002980010B5054C237833B9044B13B10448AFF3B8
:1002A80000800123237010BD100000100000000022
:1002B800B039100808B5034B1BB103490348AFF325
:1002C800008008BD0000000014000010B0391008BC
:1002D80053B94AB9002908BF00281CBF4FF0FF31A5
:1002E8004FF0FF3000F072B9ADF1080C6DE904CEA3
:1002F80000F006F8DDF804E0DDE9022304B07047F9
:100308002DE9F047089E04468846002B4BD18A42C7
:10031800154667D9B2FA82F24AB1C2F1200701FA4A
:1003280002F320FA07F7954047EA030894404FEA9A
:10033800154E230CB8FBFEF71FFA85FC0EFB178839
:1003480043EA084307FB0CF1994209D9EB1807F176
:10035800FF3080F01B81994240F21881023F2B4404
:100368005B1AA4B2B3FBFEF00EFB103344EA03445D
:1003780000FB0CFCA44509D92C1900F1FF3380F0CF
:100388000781A44540F2048102382C4440EA074022
:10039800A4EB0C0400271EB1D4400023C6E9004397
:1003A8003946BDE8F0878B4209D9002E00F0EB8072
:1003B8000027C6E9000138463946BDE8F087B3FA98
:1003C80083F7002F47D18B4202D3824200F2FA8092
:1003D800841A61EB030301209846002EE0D0C6E999
:1003E8000048DDE702B9FFDEB2FA82F2002A40F0E7
:1003F8008F80491B4FEA154E1FFA85F80127B1FB7C
:10040800FEFC230C0EFB1C1143EA014308FB0CF114
:10041800994207D9EB180CF1FF3002D2994200F249
:10042800CD808446591AA3B2B1FBFEF00EFB10141E
:1004380043EA044408FB00F8A04507D92C1900F149
:10044800FF3302D2A04500F2B6801846A4EB080498
:1004580040EA0C409FE7C7F1200CBB4022FA0CFE93
:100468004EEA030E01FA07F420FA0CF521FA0CF310
:100478004FEA1E482543B3FBF8F92C0C08FB193347
:100488001FFA8EFA44EA034309FB0AF49C4202FA73
:1004980007F200FA07F10BD91EEB030309F1FF304D
:1004A80080F087809C4240F28480A9F1020973445D
:1004B8001B1BADB2B3FBF8F008FB103345EA03444D
:1004C80000FB0AFAA24508D91EEB040400F1FF3329
:1004D8006BD2A24569D90238744440EA0940A0FBAE
:1004E8000289A4EB0A044C45C2464B4654D351D06A
:1004F800002E69D0B1EB0A0564EB030404FA0CFC86
:10050800FD40FC404CEA0505C6E90054002747E7D2
:10051800C2F1200320FA03F7954001FA02F021FA0C
:1005280003F34FEA154E3843010CB3FBFEF71FFAED
:1005380085F80EFB173341EA034107FB08F38B42AA
:1005480004FA02F407D9691807F1FF3C2FD28B424D
:100558002DD9023F2944CB1A81B2B3FBFEF00EFB22
:10056800103341EA034100FB08F38B4207D96918AD
:1005780000F1FF3C17D28B4215D902382944C91A19
:1005880040EA07473BE73746304609E70746E7E6CC
:100598001846FBE64145ABD2B8EB020A69EB0E02FE
:1005A80001381346A4E76046E9E7184695E7674629
:1005B800D1E781467CE702382C4447E7ACF1020CCE
:1005C8002B442FE7384608E73746E9E6704700BF6F
:1005D80030B58BB0002405940694079408940994C8
:1005E800254BD3F8E02042F01002C3F8E020D3F8FE
:1005F800E02002F010020192019AD3F8E02042F0C4
:100608000402C3F8E020D3F8E02002F004020292CA
:10061800029AD3F8E02042F00102C3F8E020D3F8B0
:10062800E02002F001020392039AD3F8E02042F09E
:100638000202C3F8E020D3F8E03003F00203049389
:10064800049B0E4D01221821284601F04DF918236C
:100658000593012306930794089405A9284601F0F9
:1006680053F8072305930694079405A9044801F055
:100678004BF80BB030BD00BF0044025800100258C0
:100688000004025838B5104C104B23604FF4E13386
:1006980063600025A560E56025610C236361A561A1
:1006A800E56125626562A562204603F058F829468F
:1006B800204603F0E0F82946204603F001F92046D9
:1006C80003F0BAF838BD00BF2C0000100048004005
:1006D80038B5104C104B23604FF416536360002557
:1006E800A560E56025610C236361A561E56125626C
:1006F8006562A562204603F032F82946204603F0D9
:10070800BAF82946204603F0DBF8204603F094F8AF
:1007180038BD00BFC80200100044004070B588B062
:100728000024019402940394049405940694079475
:10073800144D154B2B606C60AC60EC6004262E6188
:100748002C756C750123AB612C776C62AC62EC6222
:100758002C636C6385F83840284600F01DFE0B4B6F
:10076800019306230293039440F2FF7304930596C2
:1007780006948DF81D400DEB0601284600F0CEFAD0
:1007880008B070BD04010010006002580200300477
:1007980008B51148114B03604FF4800343600023F0
:1007A80083600722C260036143614FF08062826107
:1007B800C361036243628362C3624FF08042426353
:1007C8008363C363036443648364C36403654365E9
:1007D800836501F0B9FF08BDF40100100034014041
:1007E80030B58BB0002407940894099400940194C0
:1007F80002940394049405940694104D4FF080439A
:100808002B604FF416636B60AC600D4BEB602C6192
:100818008023AB61284602F0A3FA0794099407A93C
:10082800284602F049FB009401940294049422465D
:100838006946284602F00AFB0BB030BD7C02001066
:10084800A086010038B50D4C0D4B23600D4B63603D
:100858000025A5600123E36025616561A561E56167
:100868002562204601F04EF82946204601F0A8F8F6
:100878002946204601F0D2F838BD00BFB800001064
:1008880000580040DB3FB00000B583B01E4BD3F8E2
:10089800E02042F00072C3F8E020D3F8E03003F023
:1008A80000730193019B012001F024F801F03CF949
:1008B80001220221002001F0DDF8144B1B68C3F36C
:1008C8000313072B17D0124AD2F8143143F001034F
:1008D800C2F8143100F0B6F9FFF77AFEFFF7D2FE3E
:1008E800FFF7F6FEFFF71AFFFFF752FFFFF778FF53
:1008F800FFF7A8FFFEE7064AD2F8043143F00103E8
:10090800C2F80431E6E700BF0044025800ED00E0F9
:100918000064025882B0074BD3F8F42042F0020278
:10092800C3F8F420D3F8F43003F002030193019BD9
:1009380002B07047004402580268144B9A4200D033
:10094800704700B583B0A3F5E053D3F8E02042F038
:100958008072C3F8E020D3F8E02002F080720092A1
:10096800009AD3F8E02042F00402C3F8E020D3F85C
:10097800E03003F004030193019B4FF00061084647
:1009880000F0C2F903B05DF804FB00BF0060025834
:1009980010B588B000230393049305930693079337
:1009A8000268154B9A4201D008B010BD134CD4F818
:1009B800E03043F00203C4F8E030D4F8E03003F04C
:1009C80002030193019B4FF44063039312230493A2
:1009D8000423079303A90A4800F096FED4F8E830E8
:1009E80043F48003C4F8E830D4F8E83003F4800313
:1009F8000293029BD8E700BF005800400044025809
:100A08000004025800B589B00023039304930593AA
:100A1800069307930268154B9A4202D009B05DF815
:100A280004FB134BD3F8F02042F40052C3F8F02033
:100A3800D3F8F02002F400520192019AD3F8E02092
:100A480042F01002C3F8E020D3F8E03003F01003BE
:100A58000293029B642303930223049305230793C1
:100A680003A9044800F050FED8E700BF0034014055
:100A780000440258001002580368B3F1804F00D0B8
:100A8800704700B583B00C4BD3F8E82042F0010260
:100A9800C3F8E820D3F8E83003F001030193019B81
:100AA800002211461C2000F0CBFD1C2000F0FCFDAC
:100AB80003B05DF804FB00BF0044025800B58BB0DA
:100AC8000023059306930793089309930368314A13
:100AD800934208D0304A934213D0304A934234D0DC
:100AE8000BB05DF804FB2E4BD3F8F02042F0100257
:100AF800C3F8F020D3F8F03003F010030093009B04
:100B0800EEE7274BD3F8E82042F40032C3F8E82098
:100B1800D3F8E82002F400320192019AD3F8E020D9
:100B280042F00102C3F8E020D3F8E03003F00103FB
:100B38000293029B0C230593022306930723099330
:100B480005A9184800F0E0FDCAE7154BD3F8E820DE
:100B580042F48022C3F8E820D3F8E82002F4802287
:100B68000392039AD3F8E02042F00402C3F8E0208D
:100B7800D3F8E03003F004030493049B4FF440637C
:100B88000593022306930723099305A9064800F055
:100B9800BBFDA5E7001001400044004000480040AC
:100BA8000044025800000258000802587047FEE747
:100BB800FEE7FEE7FEE770477047704708B500F0AC
:100BC8008BF808BD08B5024801F099FF08BD00BFC1
:100BD8007C020010074BD3F8882042F47002C3F857
:100BE80088201A6942F010021A614FF001629A6077
:100BF800704700BF00ED00E0104B1B780BB90120D7
:100C0800704710B504464FF47A70B0FBF3F30C4A02
:100C18001068B0FBF3F000F055FD68B90F2C01D94E
:100C280001200AE0002221464FF0FF3000F008FDC5
:100C3800024B5C60002000E0012010BD080000109D
:100C48000400001010B582B01E4CD4F8D83043F41C
:100C58008043C4F8D830D4F8D83003F480430193E3
:100C6800019B194A136823F47F2323F4706343F428
:100C780001431360136843F001031360032000F07D
:100C8800CDFC00F05BFFA369C3F303230F4AD35CD9
:100C980003F01F03D840A36903F00F03D35C03F0EC
:100CA8001F03D8400A4B18600A4B18600020FFF752
:100CB800A3FF18B10124204602B010BD0446FFF777
:100CC80029FEF8E70044025800440240C8391008D9
:100CD8000000001004000010034B1B78034A116841
:100CE8000B441360704700BF080000105403001045
:100CF800014B1868704700BF54030010014B186877
:100D0800000C70470010005C034A536823EA000097
:100D180008435060704700BF00040058F0B482B028
:100D28000022019290F85020012A00F06F820346B9
:100D3800012280F850200068826812F0040F0AD05F
:100D48005A6D42F020025A650120002283F8502093
:100D580002B0F0BC70470A68C2F31304002C4FD1EC
:100D6800C2F3846201249440C2692243C2611E68AE
:100D78004D680C6830362A0A920002F00C02B0580E
:100D880005F01F051F27AF4020EA0700C4F384645D
:100D9800AC402043B0501A68906810F0040F38D067
:100DA8000124906810F0080F35D00120002C66D17E
:100DB800002864D10F688D6814327C0EA40004F0FA
:100DC80004041659C7F304574FF0070C0CFA07FC34
:100DD80026EA0C06BD4035431551BA4A126802F09E
:100DE8007042B2F1805F18D01C68E26812F0100FF0
:100DF80067D14A69E468C4F382046400A24013E03E
:100E080092FAA2F2B2FA82F202F01F02012494408E
:100E1800AAE70024C5E70020C8E74A691C68E46817
:100E2800C4F382046400A2400D69042D57D01F68E2
:100E38000E68603757F8254004F0004406F0F8467D
:100E48003243224347F825201A680E694C7E012C4C
:100E58003FD00546603252F8264024F000442C4327
:100E680042F826401D680C690A7E012A34D02A6996
:100E780022F4F04204F01F04A040104328611868CF
:100E8800826812F0010F40F0BD810A68CD68D0F881
:100E9800C040C2F3130624EA060405F018068A4D7A
:100EA800F5402A40C2F313022243C0F8C020C868A4
:100EB800864A904247D00A68002AC0F2E2800020A1
:100EC80043E74A69E468A40804F004046400A24003
:100ED800AAE74FF00045BDE74FF40060C7E7186880
:100EE800026E02F0F8420C68B2EB846F1CD01868EE
:100EF800426E02F0F8420C68B2EB846F19D01868A1
:100F0800826E02F0F8420C68B2EB846F16D0186853
:100F1800C26E02F0F8420C68B2EB846FAFD1C26EB9
:100F280022F00042C266AAE7026E22F00042026680
:100F3800DDE7426E22F000424266E0E7826E22F070
:100F480000428266E3E71D680A68C2F3130696BB8F
:100F5800900E013000F01F0009288CBF00200120EE
:100F6800002852D09EBB940E0134A40604F0F84425
:100F7800B6BB900E013000F01F070120B8400443B3
:100F8800C6BB920E013202F01F0202EB42021205AA
:100F980022438C681435500E800000F004002E584F
:100FA800C2F304520727974026EA070604FA02F21A
:100FB80032432A507FE792FAA2F0B0FA80F001306B
:100FC80000F01F0009288CBF00200120C8E792FA12
:100FD800A2F4B4FA84F40134A40604F0F844C7E790
:100FE80092FAA2F0B0FA80F0013000F01F07012059
:100FF800B840C4E792FAA2F2B2FA82F2013202F0E1
:101008001F0202EB42021205C2E7CEB9940E013468
:10101800A40604F0F844E6B9900E013000F01F076A
:101028000120B8400443F6B9900E013000F01F00CB
:1010380000EB40021E3A120542F000722243A8E774
:1010480092FAA2F4B4FA84F40134A40604F0F84441
:10105800E1E792FAA2F0B0FA80F0013000F01F0741
:101068000120B840DEE792FAA2F0B0FA80F0013031
:1010780000F01F0000EB40021E3A120542F0007219
:10108800DCE71968124881421AD000F58070814265
:1010980013D01048846804F0E0750D4881421FD0D1
:1010A80000F5807081421BD00B48806810F0010F5A
:1010B80037D0012080F0010022E000F50070E9E758
:1010C8000648E7E70010005CFFFF0F000000FF473D
:1010D80000200240006302580060025800230240CA
:1010E8004B48806810F0010F17D0012649488068E6
:1010F80010F0010F13D0012030430CBF0120002055
:10110800002879D0444882420DD04448824238D0E1
:101118004348824253D0002017E60026E6E7002025
:10112800EAE70020C6E714F4000FEED13D4A9142E9
:1011380001D0002009E6364A914218D002F58072A3
:10114800914211D0384A45F40001906820F0E070CF
:1011580001439160354A126892093549A1FB021290
:1011680092095200019207E002F50072EBE7314A5A
:10117800E9E7019A013A0192019A002AF9D100207F
:10118800E3E514F0807FC3D1264A914201D00020C4
:10119800DBE51F4A914210D002F58072914209D0D6
:1011A800214A45F08071906820F0E0700143916019
:1011B8000020CAE502F50072F3E71E4AF1E714F4CD
:1011C800800F21D1174A914201D00020BDE5104A75
:1011D80091420FD002F58072914209D0124945F42C
:1011E8008002886820F0E07002438A600020ACE545
:1011F8001049F4E70F49F2E75A6D42F020025A65A8
:101208000120A2E50020A0E500209EE502209FE540
:101218000020024000210240000084CB000052C799
:101228000000B8CF006002580063025804000010A4
:10123800632D3E050023024038B5054603684F4A32
:1012480093420BD002F58072934207D04C4B9B68B7
:1012580013F4403F14BF0123002306E0494B9B6869
:1012680013F4403F14BF012300230BB300F05CFDCF
:1012780004466B68B3F5003F14D0B3F5403F15D072
:10128800B3F5803F0ED0FFF739FD41F203039842D2
:101298004ED83D4B9C4245D92A68936843F48073E5
:1012A800936038BD1B0CB4FBF3F4ECE78408EAE761
:1012B8004FF4002001F088F804466B68B3F5C01FAE
:1012C80016D00BD9B3F5101F28D01DD8B3F5E01FE1
:1012D80022D0B3F5001FD6D14409D4E7B3F5402F87
:1012E80006D00AD8B3F5802F02D0B3F5002FCAD1A3
:1012F8009B0C5B00B4FBF3F4C5E7B3F5801FF7D094
:10130800B3F5A01FBFD1F3E7B3F5201F08D0B3F59D
:10131800301FB8D1040AB6E70409B4E78409B2E774
:10132800C409B0E72A68936823F480739360B8E728
:101338006408164B9C420BD9154B9C420ED9154B91
:101348009C4213D92A68936843F440739360A8E7D2
:101358002A68936823F440739360A2E72A68936825
:1013680023F4407343F4807393609AE72A68936880
:1013780023F4407343F40073936092E70020024023
:101388000063025800230240002D3101105E5F0007
:1013980020BCBE0040787D0130B583B000230193A6
:1013A800002800F027810446436D03B323689A6838
:1013B80012F0005F05D09A6822F0204222F03F0226
:1013C8009A602268936813F0805F1DD1936823F0B8
:1013D800104323F03F0343F080539360864B1B6810
:1013E8009B09864AA2FB03239B09019309E0FFF7A7
:1013F800A3FA0023A36584F85030D7E7019B013B8B
:101408000193019B002BF9D123689A6812F0805F41
:1014180030D1626D42F010026265A26D42F00102A5
:10142800A26501259A6812F0040F25D00121626D8A
:1014380012F0100F40F0D680002940F0D380626D82
:1014480022F4817242F0020262659A6812F0010F7A
:1014580033D16B4A934211D002F5807293420DD07A
:10146800684A926812F0010F00F08780012282F02A
:10147800010213E00025D5E70021D8E7604A926809
:1014880012F0010F75D001215F4A926812F0010F26
:1014980071D001220A430CBF012200226AB1584AC6
:1014A80093426ED002F58072934268D057496368C0
:1014B8008A6822F47C1213438B60FFF71FFC41F209
:1014C8000303984202D9A368102B5CD0627D236B7A
:1014D80043EA4233A2681343227F43EA0243227F4E
:1014E800012A5BD0626A22B102F47872A16A0A43C7
:1014F80013432168C868464A02401343CB602368F7
:101508009A6812F0040F4ED001219A6812F0080F61
:101518004BD00122F1B9EAB9217DE26A42EA813170
:10152800DA6822F4804222F003020A43DA6094F86F
:101538003830012B3BD02268136923F00103136173
:101548002268136923F07043616B0B4313612046D3
:10155800FFF772FEE368012B3BD02268136B23F080
:101568000F031363636D23F0030343F00103636503
:101578003DE0002188E700228CE7002277E7254933
:1015880095E7244993E7617D226B42EA4132134390
:10159800227F43EA024343F00C03A0E7226A013AA0
:1015A80043EA42439EE70021AFE70022B2E7206802
:1015B8000269194B1340E26B511E226C42EA014248
:1015C800616C0A43A16C0A43134343F001030361AE
:1015D800B6E721680B6B23F00F03A269013A1343A6
:1015E8000B63BFE7636D43F010036365012528466D
:1015F80003B030BD0125FAE704000010632D3E0555
:101608000020024000600258002102400063025896
:1016180003C0F0FF002302401EF800FC074AD3680D
:1016280023F4E0631B041B0C000200F4E060184381
:1016380040F0BF6040F40030D060704700ED00E03B
:1016480030B4174BDB68C3F30223C3F10704042C3F
:1016580028BF04241D1D062D18D9033B4FF0FF3564
:1016680005FA04F421EA0401994005FA03F322EA91
:101678000303194300280BDB0901C9B200F16040DC
:1016880000F5614080F8001330BC70470023E5E79F
:1016980000F00F000901C9B2024B1954F4E700BF6A
:1016A80000ED00E014ED00E0002807DB00F01F0269
:1016B800400901239340024A42F82030704700BF96
:1016C80000E100E00138B0F1807F0AD2064B586093
:1016D800064AF02182F823100020986007221A6039
:1016E80070470120704700BF10E000E000ED00E007
:1016F800044B1B68C3F30313072B01D00120704769
:101708000320704700ED00E0F0B583B000233AE015
:10171800092400E00024B4403C4302356E4E46F8EC
:1017280025406E4C2568D44304EA05064F6817F433
:10173800803F01D042EA0506684D2E606E6804EAD3
:1017480006054F6817F4003F01D042EA0605634ECC
:1017580075604FF0B0452D6804EA05064F6817F428
:10176800801F01D042EA05064FF0B0452E606D6833
:101778002C404E6816F4001F01D042EA05044FF0D1
:10178800B042546001330A6832FA03F400F0A280D0
:1017980001249C402240F5D04D686E1E012E03D9CD
:1017A800112D01D0122D12D186685F000325BD408E
:1017B80026EA0506CD68BD4035438560466826EAB9
:1017C80004064D68C5F300149C4034434460C56862
:1017D8005F000324BC40E44325408E68BE402E438E
:1017E800C6604D68022D01D0122D13D1DE080836CF
:1017F80050F826E003F007054FEA850C0F2505FA97
:101808000CF52EEA050E0D6905FA0CF545EA0E05EC
:1018180040F8265005682C404D6805F00305BD408A
:101828002C4304604C6814F0805FABD02C4CD4F887
:10183800F45045F00205C4F8F450D4F8F44004F02C
:1018480002040194019C9D08AE1C234C54F8267098
:1018580003F00304A6000F24B44027EA0407214C30
:10186800A0423FF457AF04F58064A04222D004F5AB
:101878008064A04220D004F58064A0421ED004F504
:101888008064A0421CD004F58064A0421AD004F5FC
:101898008064A04218D004F58064A04216D004F5F4
:1018A8008064A04214D004F58064A0423FF430AFB5
:1018B8000A2430E701242EE702242CE703242AE730
:1018C800042428E7052426E7062424E7072422E73A
:1018D800082420E703B0F0BD00040058C0000058F9
:1018E800004402580000025812B909048161704787
:1018F80081617047024A136818431060704700BF3F
:1019080010650258002859D010B5044690F84130A7
:10191800002B43D0242384F841302268136823F035
:10192800010313606368226823F0706313612268FF
:10193800936823F400439360E368012B33D0A368D2
:10194800226843F404439360E368022B31D0226891
:10195800536843F0007343F4004353602268D3682C
:1019680023F40043D360236962691343A1692268A1
:1019780043EA0123D360E369216A22680B431360B9
:101988002268136843F00103136000206064202379
:1019980084F84130206384F8420010BD80F840305C
:1019A800FEF7F6FFB6E7A368226843F400439360A6
:1019B800CAE723684FF400625A60C8E701207047FD
:1019C80090F84130DBB2202B24D190F84030012B25
:1019D80022D0012380F84030242380F84130026867
:1019E800136823F0010313600268136823F480531B
:1019F800136002681368194311600268136843F0A2
:101A080001031360202380F84130002380F8403020
:101A180018467047022070470220704790F84130FE
:101A2800DBB2202B22D190F84030012B20D00123AB
:101A380080F84030242380F841300268136823F08E
:101A4800010313600268136823F4706343EA0121F9
:101A580011600268136843F001031360202380F8C3
:101A68004130002380F84030184670470220704704
:101A78000220704710B50C4629490B6823F0010372
:101A8800184308605AB1012A26D0FFF731FE03280F
:101A98003FD0234A536923F00403536110BDFFF775
:101AA80027FE0328FAD11E4A136923F001031361A4
:101AB8001C4A136943F004031361BFF34F8FBFF34C
:101AC8006F8F012C06D020BF164A136923F0040338
:101AD8001361E3E730BFF7E7FFF70AFE0128DDD11E
:101AE8000F4A536923F0020353610E4A136943F006
:101AF80004031361BFF34F8FBFF36F8F012C06D020
:101B080020BF084A136923F004031361C6E730BFF6
:101B1800F7E7034A136923F004031361BEE700BF24
:101B28000048025800ED00E008B5FFF7E1FD032882
:101B380002D040BF20BF08BD20BFFCE7724B1B6925
:101B480003F03803102B00F0DB80182B10D00BB1FA
:101B58006E4870476C4B1B6813F0200F00F0D28062
:101B6800694B1868C0F3C100694B23FA00F070474D
:101B7800654A916A01F00301906AC0F30510D36ABF
:101B880003F00103526BC2F3CC0203FB02F307EE2E
:101B9800903AF8EE677A002800F0B580012966D0FF
:101BA800F9B1022900F08F8007EE100AF8EE476AB3
:101BB8009FED586A86EE267A534B1B6BC3F30803D6
:101BC80006EE903AF8EE666A9FED536A67EE867AFB
:101BD80076EEA77AF7EE006A77EEA67A27EE277AEE
:101BE80061E0494B1B6813F0200F23D046490A686F
:101BF800C2F3C102464BD34007EE103AF8EE476AEB
:101C080007EE100AB8EE476A86EE867A0B6BC3F3C6
:101C1800080306EE903AF8EE666A9FED3F6A67EEB3
:101C2800867A76EEA77AF7EE006A77EEA67A27EE3E
:101C3800277A38E007EE100AF8EE476A9FED376A10
:101C480086EE267A304B1B6BC3F3080306EE903AF8
:101C5800F8EE666A9FED306A67EE867A76EEA77AC6
:101C6800F7EE006A77EEA67A27EE277A1BE007EEF2
:101C7800100AF8EE476A9FED276A86EE267A224B0D
:101C88001B6BC3F3080306EE903AF8EE666A9FED05
:101C9800226A67EE867A76EEA77AF7EE006A77EE22
:101CA800A67A27EE277A184B1B6BC3F3462301331A
:101CB80007EE903AF8EE677AC7EE276AFCEEE67A06
:101CC80017EE900A704707EE100AF8EE476A9FED84
:101CD800146A86EE267A0C4B1B6BC3F3080306EED8
:101CE800903AF8EE666A9FED0C6A67EE867A76EEB1
:101CF800A77AF7EE006A77EEA67A27EE277AD2E778
:101D080008487047024870470044025800093D00DF
:101D18000090D0030024744A000000390024744C59
:101D280020BCBE4B40787D0108B5FFF707FF0A4984
:101D38008B69C3F30323094AD35C03F01F03D8401C
:101D48008B6903F00F03D35C03F01F03D840044BE7
:101D58001860044B186008BD00440258C8391008C0
:101D6800000000100400001008B5FFF7DDFF054B68
:101D7800DB69C3F30213044AD35C03F01F03D840A2
:101D880008BD00BF00440258C839100808B5FFF75D
:101D9800CBFF054BDB69C3F30223044AD35C03F092
:101DA8001F03D84008BD00BF00440258C8391008B6
:101DB80008B5FFF7B9FF054B1B6AC3F30213044AC2
:101DC800D35C03F01F03D84008BD00BF004402588D
:101DD800C839100810B478498C6A8A6AC2F3053287
:101DE800CB6AC3F30013C96BC1F3CC0103FB01F346
:101DF800002A00F0DB8004F0030407EE903AF8EEC6
:101E0800677A012C66D0FCB1022C00F0B28007EE94
:101E1800102AB8EE477A9FED696AC6EE076A664BE4
:101E28009B6BC3F3080307EE103AB8EE477A9FEDB1
:101E3800646A67EE867A77EE277AB7EE007A77EEED
:101E4800877A66EEA76A61E05B4B1B6813F0200F88
:101E580023D0594C2168C1F3C1015A4BCB4007EE3E
:101E6800103AB8EE477A06EE902AB8EE666AC7EEE0
:101E7800066AA36BC3F3080307EE103AB8EE477A75
:101E88009FED4F6A67EE867A77EE277AB7EE007A8B
:101E980077EE877A66EEA76A38E007EE102AB8EE82
:101EA800477A9FED496AC6EE076A434B9B6BC3F3BB
:101EB800080307EE103AB8EE477A9FED416A67EEDD
:101EC800867A77EE277AB7EE007A77EE877A66EE2B
:101ED800A76A1BE007EE102AB8EE477A9FED376A2B
:101EE800C6EE076A344B9B6BC3F3080307EE103A40
:101EF800B8EE477A9FED326A67EE867A77EE277AF0
:101F0800B7EE007A77EE877A66EEA76A2A4A936B6D
:101F1800C3F3462307EE103AB8EE477AB7EE006AE5
:101F280037EE067AC6EE877AFCEEE77AC0ED007ADD
:101F3800936BC3F3064307EE103AB8EE477A37EED1
:101F4800067AC6EE877AFCEEE77AC0ED017A936BE3
:101F5800C3F3066307EE903AF8EE677A77EE867A6F
:101F680086EEA77ABCEEC77A80ED027A5DF8044B5C
:101F7800704707EE102AB8EE477A9FED146AC6EE4E
:101F8800076A0D4B9B6BC3F3080307EE103AB8EED4
:101F9800477A9FED0B6A67EE867A77EE277AB7EE77
:101FA800007A77EE877A66EEA76AAFE700230360C8
:101FB80043608360DAE700BF004402580024744A93
:101FC800000000390090D0030024744C20BCBE4BA4
:101FD80010B478498C6A8A6AC2F30552CB6AC3F393
:101FE8000023496CC1F3CC0103FB01F3002A00F084
:101FF800DB8004F0030407EE903AF8EE677A012CD0
:1020080066D0FCB1022C00F0B28007EE102AB8EEC0
:10201800477A9FED696AC6EE076A664B1B6CC3F385
:10202800080307EE103AB8EE477A9FED646A67EE48
:10203800867A77EE277AB7EE007A77EE877A66EEB9
:10204800A76A61E05B4B1B6813F0200F23D0594C43
:102058002168C1F3C1015A4BCB4007EE103AB8EEE4
:10206800477A06EE902AB8EE666AC7EE066A236CCF
:10207800C3F3080307EE103AB8EE477A9FED4F6AAC
:1020880067EE867A77EE277AB7EE007A77EE877A68
:1020980066EEA76A38E007EE102AB8EE477A9FED99
:1020A800496AC6EE076A434B1B6CC3F3080307EE85
:1020B800103AB8EE477A9FED416A67EE867A77EE76
:1020C800277AB7EE007A77EE877A66EEA76A1BE082
:1020D80007EE102AB8EE477A9FED376AC6EE076A10
:1020E800344B1B6CC3F3080307EE103AB8EE477A7B
:1020F8009FED326A67EE867A77EE277AB7EE007A36
:1021080077EE877A66EEA76A2A4A136CC3F34623EA
:1021180007EE103AB8EE477AB7EE006A37EE067A5D
:10212800C6EE877AFCEEE77AC0ED007A136CC3F34B
:10213800064307EE103AB8EE477A37EE067AC6EE4F
:10214800877AFCEEE77AC0ED017A136CC3F3066375
:1021580007EE903AF8EE677A77EE867A86EEA77AF7
:10216800BCEEC77A80ED027A5DF8044B704707EE43
:10217800102AB8EE477A9FED146AC6EE076A0D4B2F
:102188001B6CC3F3080307EE103AB8EE477A9FEDCD
:102198000B6A67EE867A77EE277AB7EE007A77EEE3
:1021A800877A66EEA76AAFE700230360436083601F
:1021B800DAE700BF004402580024744A00000039DE
:1021C8000090D0030024744C20BCBE4B10B4784956
:1021D8008C6A8A6AC2F30512CB6A03F00103496B61
:1021E800C1F3CC0103FB01F3002A00F0DB8004F00B
:1021F800030407EE903AF8EE677A012C66D0FCB13A
:10220800022C00F0B28007EE102AB8EE477A9FED54
:10221800696AC6EE076A664B1B6BC3F3080307EED1
:10222800103AB8EE477A9FED646A67EE867A77EEE1
:10223800277AB7EE007A77EE877A66EEA76A61E0CA
:102248005B4B1B6813F0200F23D0594C2168C1F356
:10225800C1015A4BCB4007EE103AB8EE477A06EE6A
:10226800902AB8EE666AC7EE066A236BC3F30803C2
:1022780007EE103AB8EE477A9FED4F6A67EE867A16
:1022880077EE277AB7EE007A77EE877A66EEA76A56
:1022980038E007EE102AB8EE477A9FED496AC6EE95
:1022A800076A434B1B6BC3F3080307EE103AB8EEFB
:1022B800477A9FED416A67EE867A77EE277AB7EE1E
:1022C800007A77EE877A66EEA76A1BE007EE102A97
:1022D800B8EE477A9FED376AC6EE076A344B1B6B38
:1022E800C3F3080307EE103AB8EE477A9FED326A57
:1022F80067EE867A77EE277AB7EE007A77EE877AF6
:1023080066EEA76A2A4A136BC3F3462307EE103A10
:10231800B8EE477AB7EE006A37EE067AC6EE877AE5
:10232800FCEEE77AC0ED007A136BC3F3064307EEC1
:10233800103AB8EE477A37EE067AC6EE877AFCEEA0
:10234800E77AC0ED017A136BC3F3066307EE903AA0
:10235800F8EE677A77EE867A86EEA77ABCEEC77AC9
:1023680080ED027A5DF8044B704707EE102AB8EE4C
:10237800477A9FED146AC6EE076A0D4B1B6BC3F3D1
:10238800080307EE103AB8EE477A9FED0B6A67EE3E
:10239800867A77EE277AB7EE007A77EE877A66EE56
:1023A800A76AAFE70023036043608360DAE700BFF2
:1023B800004402580024744A000000390090D003F9
:1023C8000024744C20BCBE4B00B58BB0B0F5807FA8
:1023D8001BD0B0F5007F48D0B0F5806F78D0B0F54D
:1023E800006F00F0AB80B0F5805F00F0DD80B0F5E5
:1023F800002F00F00F81B0F5803F00F03181B0F57B
:10240800804F00F0458100200CE09E4B1B6D03F0CF
:102418000703042B00F26481DFE803F0070C1103C3
:10242800160099480BB05DF804FB07A8FFF7CEFE2D
:102438000898F7E704A8FFF7CDFC0498F2E701A88D
:10244800FFF7C6FD0198EDE78E4BDB6C13F04053A8
:1024580000F04881B3F1805F00F04681B3F1005F7E
:1024680001D00020DEE78948DCE7864B1B6D03F4CA
:10247800E073802B25D008D8F3B1402B40F036818B
:1024880004A8FFF7A7FC0498CCE7C02B12D0B3F53B
:10249800807F40F02B817B4BDB6C13F0405300F0C6
:1024A8002781B3F1805F00F02581B3F1005F0DD083
:1024B8000020B7E77448B5E707A8FFF787FE089834
:1024C800B0E701A8FFF784FD0198ABE76F48A9E7DB
:1024D8006C4B9B6D03F46003B3F5800F27D009D8CC
:1024E80003B3B3F5001F40F0078104A8FFF772FC9F
:1024F800049897E7B3F5C00F12D0B3F5000F40F07A
:10250800FB80604BDB6C13F0405300F0F780B3F1B5
:10251800805F00F0F580B3F1005F0DD0002081E707
:1025280059487FE707A8FFF751FE08987AE701A8FE
:10253800FFF74EFD019875E7544873E7514B9B6DC3
:1025480003F0E063B3F1007F27D009D803B3B3F1F8
:10255800807F40F0D78004A8FFF73CFC049861E72F
:10256800B3F1407F12D0B3F1806F40F0CB80454B80
:10257800DB6C13F0405300F0C780B3F1805F00F0CC
:10258800C580B3F1005F0DD000204BE73E4849E716
:1025980007A8FFF71BFE089844E701A8FFF718FDF6
:1025A80001983FE739483DE7364B1B6D03F4E0439C
:1025B800B3F5005F27D009D803B3B3F5805F40F0C7
:1025C800A78004A8FFF706FC04982BE7B3F5405F43
:1025D80012D0B3F5804F40F09B802A4BDB6C13F090
:1025E800405300F09780B3F1805F00F09580B3F11D
:1025F800005F0DD0002015E7234813E707A8FFF771
:10260800E5FD08980EE701A8FFF7E2FC019809E745
:102618001E4807E71B4B9B6D03F44033B3F5803F1F
:102628000AD0B3F5003F0CD00BB10020FAE604A89D
:10263800FFF7D0FB0498F5E601A8FFF7C9FC03985B
:10264800F0E6104BDB6C13F0405367D0B3F1805FBA
:1026580066D0B3F1005F01D00020E3E60B48E1E665
:10266800084BDB6C13F4803302D033B90020D9E671
:1026780007A8FFF7ABFD0898D4E604A8FFF7AAFB64
:102688000698CFE6004402580080BB0040787D01E0
:10269800254B9B6D03F0E043B3F1005F19D00AD9D5
:1026A800B3F1804F3ED0B3F1A04F17D0B3F1405FE4
:1026B8000AD00020B6E64BB1B3F1805FF9D104A887
:1026C800FFF788FB0598ADE61848ABE6FFF770FB07
:1026D800A8E601A8FFF77CFC0298A3E61448A1E647
:1026E80000209FE611489DE612489BE6002099E6E7
:1026F8000E4897E60F4895E6002093E60B4891E6CA
:102708000C488FE600208DE608488BE6094889E6E4
:10271800002087E6054885E6064883E6034881E603
:1027280004487FE603487DE6004402580090D00341
:1027380040787D0100093D00C36B5B09C068083023
:10274800C00803FB00007047002800F09D8038B5E2
:1027580004460023836205684F4B9D420BD0A3F5C6
:1027680078439D4207D003F580639D4203D0C36838
:102778000F2B00F28B802046FFF7DEFF464B9D4271
:1027880009D0A3F578439D4205D003F580639D42A7
:1027980001D008287CD8404B9D4207D0A3F5784348
:1027A8009D4203D003F580639D4201D1102871D862
:1027B80094F88130002B54D0022384F881302268A9
:1027C800136823F001031360A369B3F1806F4ED03F
:1027D800E369A26A1343E26B1343E16822680B437F
:1027E8009360636B626A1343A26B1343A26913433A
:1027F8002269134362691343226A134362681343CD
:10280800E26C1343A2681343A26C1343A16D2268C0
:102818000B43D36063686BB92268936823F4C05391
:1028280043F4006393602268936823F4C06343F41D
:10283800806393602268136D23F001031365636856
:1028480013F4800F06D02268D36823F00043616D2B
:102858000B43D3600020C4F88400012384F881303E
:1028680038BD84F880302046FEF7CCF8A4E76368CA
:10287800B3F5800FACD1A36B002BA9D122681368E4
:1028880043F480531360A3E7012070470120E7E772
:102898000120E5E70120E3E70030014030B4036A96
:1028A80023F001030362036A4468826922F48032D8
:1028B80022F073020D682A4323F002038D682B432C
:1028C8001C4DA8420FD005F58065A8420BD005F530
:1028D8007055A84207D005F58065A84203D005F5D4
:1028E8008065A84205D123F00803CD682B4323F067
:1028F8000403104DA8420FD005F58065A8420BD0FF
:1029080005F57055A84207D005F58065A84203D0A3
:1029180005F58065A84205D124F440754C692C431F
:102928008D692C43446082614A684263036230BC0B
:10293800704700BF0000014030B4036A23F480737D
:102948000362036A4468C26922F073020D682A436D
:1029580023F400738D6843EA0523184DA84203D079
:1029680005F58065A84206D123F40063CD6843EAE3
:10297800052323F48063114DA8420FD005F5806527
:10298800A8420BD005F57055A84207D005F580651B
:10299800A84203D005F58065A84207D124F4405425
:1029A8004D6944EA05148D6944EA05144460C2611E
:1029B8004A68C263036230BC704700BF0000014030
:1029C80030B4036A23F480530362036A4468C2691B
:1029D80022F4E6420D6842EA052223F400538D688A
:1029E80043EA05330F4DA8420FD005F58065A8428C
:1029F8000BD005F57055A84207D005F58065A842AB
:102A080003D005F58065A84204D124F480444D69BB
:102A180044EA85144460C2614A680264036230BCB7
:102A2800704700BF0000014030B4036A23F48033CC
:102A38000362036A4268446D24F070040D682C43F5
:102A480023F400338D6843EA05430F4DA8420FD0A5
:102A580005F58065A8420BD005F57055A84207D04A
:102A680005F58065A84203D005F58065A84204D124
:102A780022F480324D6942EA0522426044654A6880
:102A88008265036230BC70470000014030B4036ABD
:102A980023F480130362036A4468426D22F4E0421F
:102AA8000D6842EA052223F400138D6843EA0553B2
:102AB8000F4DA8420FD005F58065A8420BD005F54B
:102AC8007055A84207D005F58065A84203D005F5E2
:102AD8008065A84204D124F400344D6944EA852471
:102AE800446042654A68C265036230BC704700BFF3
:102AF800000001407047704770477047704710B535
:102B0800044603681A6912F0020F11D0DA6812F04D
:102B1800020F0DD06FF002021A61012303770368D8
:102B28009B6913F0030F79D0FFF7E6FF00232377A3
:102B380023681A6912F0040F12D0DA6812F0040F31
:102B48000ED06FF004021A610223237723689B6971
:102B580013F4407F68D02046FFF7CEFF0023237789
:102B680023681A6912F0080F12D0DA6812F0080FF9
:102B78000ED06FF008021A61042323772368DB69FB
:102B880013F0030F57D02046FFF7B6FF0023237733
:102B980023681A6912F0100F12D0DA6812F0100FB9
:102BA8000ED06FF010021A61082323772368DB69BF
:102BB80013F4407F46D02046FFF79EFF002323777B
:102BC80023681A6912F0010F03D0DA6812F0010FB6
:102BD8003FD123681A6912F0800F03D0DA6812F027
:102BE800800F3DD123681A6912F4807F03D0DA6818
:102BF80012F0800F3BD123681A6912F0400F03D0FE
:102C0800DA6812F0400F39D123681A6912F0200FE0
:102C180003D0DA6812F0200F37D110BDFFF76BFF31
:102C28002046FFF76AFF81E72046FFF764FF20464A
:102C3800FFF763FF92E72046FFF75DFF2046FFF7A7
:102C48005CFFA3E72046FFF756FF2046FFF755FF36
:102C5800B4E76FF001021A612046FFF74BFFB8E7AF
:102C68006FF080021A61204600F073F9BAE76FF43A
:102C780080721A61204600F06DF9BCE76FF04002DF
:102C88001A612046FFF73AFFBEE76FF020021A618B
:102C9800204600F05DF9C0E70368304A904212D040
:102CA800B0F1804F0FD0A2F57C4290420BD002F5D4
:102CB8008062904207D002F58062904203D002F50C
:102CC8007842904203D123F070034A681343234AA1
:102CD80090421ED0B0F1804F1BD0A2F57C429042AA
:102CE80017D002F58062904213D002F580629042BC
:102CF8000FD002F5784290420BD002F57052904204
:102D080007D002F58062904203D002F580629042BB
:102D180003D123F44073CA68134323F080034A693C
:102D2800134303608B68C3620B6883620B4B984242
:102D38000FD003F5806398420BD003F57053984287
:102D480007D003F58063984203D003F58063984267
:102D580001D10B69036301234361704700000140FF
:102D680058B310B5044690F83D300BB3022384F8ED
:102D78003D30211D2068FFF78FFF012384F848307C
:102D880084F83E3084F83F3084F8403084F841308D
:102D980084F8423084F8433084F8443084F845306D
:102DA80084F8463084F8473084F83D30002010BD60
:102DB80080F83C30FDF760FED8E70120704700003E
:102DC80030B4036A23F010030362036A446882691B
:102DD80022F0807222F4E6420D6842EA052223F0CE
:102DE80020038D6843EA0513174DA84203D005F563
:102DF8008065A84206D123F08003CD6843EA051315
:102E080023F04003104DA8420FD005F58065A84275
:102E18000BD005F57055A84207D005F58065A84286
:102E280003D005F58065A84207D124F440644D69B4
:102E380044EA85048D6944EA8504446082614A68ED
:102E48008263036230BC70470000014090F83C3058
:102E5800012B2ED010B50446012380F83C30142AEB
:102E68000FD8DFE802F00B0E0E0E120E0E0E160E25
:102E78000E0E1A0E0E0E1E0E0E0E22000068FFF722
:102E88000DFD002084F83C0010BD0068FFF798FF96
:102E9800F7E70068FFF750FDF3E70068FFF790FDDC
:102EA800EFE70068FFF7C0FDEBE70068FFF7EEFD0E
:102EB800E7E702207047000090F83C30012B42D031
:102EC80030B4012380F83C30022380F83D3002689A
:102ED800536895681D4CA24203D004F58064A24251
:102EE80003D123F470034C68234323F070030C6868
:102EF800234353600368154A934216D0B3F1804FB9
:102F080013D0A2F57C4293420FD002F5806293421F
:102F18000BD002F58062934207D002F578429342C3
:102F280003D0A2F56C42934204D125F080058A684B
:102F380015439D60012380F83D30002380F83C3024
:102F4800184630BC70470220704700BF000001409F
:102F580070477047704700002DE9F04387B004467A
:102F6800016883680269134342691343C2691343C2
:102F7800426E13430868884A02401A430A6022686E
:102F8800536823F44053E1680B435360A1692268F6
:102F9800824B9A4201D0236A1943936823F06E4307
:102FA80023F430630B4393602268D36A23F00F0342
:102FB800616A0B43D3622368794A93421FD0794AE6
:102FC800934259D0784A934270D0784A934200F09D
:102FD8008780774A934200F09D80764A934200F0BA
:102FE800B380754A934200F0EF80744A934200F030
:102FF80002816A4A934200F0158180222BE1704ACF
:10300800526D02F03802282A34D8DFE812F029007D
:10301800330033003300330033003300330023011F
:1030280033003300330033003300330033002B0008
:1030380033003300330033003300330033002D00F6
:1030480033003300330033003300330033002F00E4
:1030580033003300330033003300330033003100D2
:103068000122F8E00822F6E01022F4E02022F2E043
:103078004022F0E08022EEE0514A526D02F0070251
:10308800052A11D8DFE812F00600350108000A0009
:103098000C000E000022DEE00822DCE01022DAE05C
:1030A8002022D8E04022D6E08022D4E0444A526D63
:1030B80002F00702052A11D8DFE812F006001D0108
:1030C80008000A000C000E000022C4E00822C2E03A
:1030D8001022C0E02022BEE04022BCE08022BAE0FC
:1030E800374A526D02F00702052A11D8DFE812F0BC
:1030F8000600050108000A000C000E000022AAE0E4
:103108000822A8E01022A6E02022A4E04022A2E0A3
:103118008022A0E02A4A526D02F00702052A11D83F
:10312800DFE812F00600ED0008000A000C000E00AF
:10313800002290E008228EE010228CE020228AE013
:10314800402288E0802286E01D4A526D02F0380253
:10315800282A37D8DFE802F01536363636363636BE
:10316800D536363636363636173636363636363677
:1031780019363636363636361B363636363636361F
:103188001D00012267E0082265E0102263E020228A
:1031980061E040225FE000BFF369FFCF000C0058F8
:1031A800001001400044004000480040004C00402E
:1031B800005000400014014000780040007C0040AE
:1031C80000440258802246E0824A526D02F007020B
:1031D800052A0ED8DFE802F003970507090B00223D
:1031E80039E0082237E0102235E0202233E040227F
:1031F80031E080222FE0774A526D02F00702052A5B
:103208000ED8DFE802F003820507090B002222E04E
:10321800082220E010221EE020221CE040221AE0B2
:10322800802218E002F50E32926D02F00702052A9C
:103238000ED8DFE802F0036C0507090B02220AE04A
:10324800082208E0102206E0202204E0402202E0E2
:10325800802200E0042260498B425AD0E369B3F52A
:10326800004F00F0C380402A00F27981DFE812F0B5
:1032780027014B01770177014E017701770177012B
:10328800530177017701770177017701770177019A
:103298005801770177017701770177017701770185
:1032A8007701770177017701770177017701770156
:1032B8002501770177017701770177017701770198
:1032C8007701770177017701770177017701770136
:1032D8007701770177017701770177017701770126
:1032E8007701770177017701770177017701770116
:1032F80064010422AFE70422ADE70422ABE704220D
:10330800A9E70422A7E70422A5E70422A3E70422E9
:10331800A1E7082A48D007D9202A0ED0402A54D03D
:10332800102A46D00120E3E0022A08D0042AF9D165
:1033380003A8FEF74FFD049803E0284804E0FEF7D1
:1033480037FD002800F0FD80626A254B33F8122013
:10335800B0FBF2F3656805EB4501994200F2F38092
:10336800B3EB053F00F2F1804FF0000892B2002362
:103378004146FCF7ADFF0F0247EA106706026808EE
:103388002A46434616EB000847F1000940464946DD
:10339800FCF79EFFA0F54072124B9A4200F2D780CC
:1033A8002368D8600020A3E06846FEF711FE019864
:1033B800C7E7084B1B6813F0200F09D0054B1B68A3
:1033C800C3F3C1030848D840BBE74FF40040BBE74C
:1033D8000548B9E700440258000C005800093D00B0
:1033E800D8391008FFFC0F000090D003402A00F2E3
:1033F800B080DFE802F02344AEAE47AEAEAE4CAECE
:10340800AEAEAEAEAEAE51AEAEAEAEAEAEAEAEAE31
:10341800AEAEAEAEAEAE21AEAEAEAEAEAEAEAEAE51
:10342800AEAEAEAEAEAEAEAEAEAEAEAEAEAEAEAEB4
:10343800AEAEAEAEAEAE5D004C4804E0FEF794FC16
:10344800002800F08880626A494B33F81230B0FBDC
:10345800F3F06268530803EB4003B3FBF2F39BB24B
:10346800A3F110014FF6EF72914276D823F00F02C4
:10347800C3F3420313432268D360002038E0FEF709
:1034880085FCDDE703A8FEF7A5FC0498D8E76846A5
:10349800FEF79EFD0198D3E7364B1B6813F0200F0B
:1034A80009D0344B1B68C3F3C1033348D840C7E77E
:1034B8004FF40040C7E73048C5E72C4803E0FEF763
:1034C80053FC00284DD0626A294B33F81230B0FB08
:1034D800F3F0636800EB5300B0FBF3F080B2A0F1A7
:1034E80010024FF6EF739A423DD82368D860002047
:1034F8000123A4F86A30A4F868300023E366236740
:1035080007B0BDE8F083FEF741FCDAE703A8FEF751
:1035180061FC0498D5E76846FEF75AFD0198D0E7A4
:10352800144B1B6813F0200F09D0124B1B68C3F310
:10353800C1031148D840C4E74FF40040C3E70E4820
:10354800C1E70020D4E70120D2E70120D0E701201D
:10355800CEE70120CCE70020CAE70120C8E7012018
:10356800C6E70020C4E70120C2E700BF00093D000C
:10357800D8391008004402580090D003836A13F029
:10358800010F06D00268536823F40033C16A0B4365
:103598005360836A13F0020F06D00268536823F45D
:1035A8008033016B0B435360836A13F0040F06D01A
:1035B8000268536823F48023416B0B435360836A8A
:1035C80013F0080F06D00268536823F40043816B98
:1035D8000B435360836A13F0100F06D00268936898
:1035E80023F48053C16B0B439360836A13F0200F5D
:1035F80006D00268936823F40053016C0B43936070
:10360800836A13F0400F0AD00268536823F48013CA
:10361800416C0B435360436CB3F5801F0BD0836A36
:1036280013F0800F06D00268536823F40023C16C9E
:103638000B43536070470268536823F4C003816CDE
:103648000B435360EBE72DE9F04104460F4616465D
:103658009846069D2368DB6937EA03030CBF0123FC
:103668000023B3423FD1B5F1FF3FF3D0FDF740FB54
:10367800A0EB0800A84222D80DB323681A6812F0FC
:10368800040FE7D0DA6912F4006FE3D04FF4006258
:103698001A622268136823F4D0731360226893684F
:1036A80023F0010393602023C4F88030C4F88430E9
:1036B800C4F88830002384F87C30032014E02268A2
:1036C800136823F4D07313602268936823F001030E
:1036D80093602023C4F88030C4F88430002384F831
:1036E8007C30032000E00020BDE8F08130B583B0D5
:1036F80004460023C0F88830FDF7FAFA0546236827
:103708001B6813F0080F0ED123681B6813F0040F11
:1037180017D12023C4F88030C4F88430002084F8FE
:103728007C0003B030BD6FF07E4300930346002257
:103738004FF400112046FFF786FF0028E4D003204D
:10374800EFE76FF07E4300932B4600224FF4800191
:103758002046FFF778FF0028DBD00320E1E778B3A5
:1037680010B50446D0F880300BB32423C4F8803059
:103778002268136823F0010313602046FFF7ECFB6F
:10378800012813D0A36ABBB92268536823F4904375
:1037980053602268936823F02A03936022681368B1
:1037A80043F0010313602046FFF7A0FF10BD80F827
:1037B8007C30FDF783F9D8E72046FFF7DFFEE3E723
:1037C8000120704710B485B002461A4B93E80300F5
:1037D80004AC04E903006C46083393E8030084E86A
:1037E8000300536EFBB111688B68C3F342638868AA
:1037F80004A901EB507010F8081C090110F8100C0E
:1038080091FBF0F1A2F86A1004A90B4413F8081C04
:10381800090113F8103C91FBF3F3A2F8683005B0E6
:103828005DF8044B70470123A2F86A30A2F86830AB
:10383800F5E700BFF039100890F87C30012B18D05C
:10384800012380F87C302423C0F8803003681A688C
:10385800196821F00101196022F000520023436623
:1038680001680A602022C0F8802080F87C30184661
:1038780070470220704738B590F87C30012B1DD076
:103888000446012380F87C302423C0F88030036884
:103898001D681A6822F001021A600268936823F012
:1038A800604319439160FFF78DFF23681D60202353
:1038B800C4F88030002084F87C0038BD0220FCE782
:1038C80038B590F87C30012B1DD00446012380F8D0
:1038D8007C302423C0F8803003681D681A6822F001
:1038E80001021A600268936823F0606319439160CB
:1038F800FFF768FF23681D602023C4F8803000208C
:1039080084F87C0038BD0220FCE70000DFF834D0E2
:10391800FDF760F9002103E00B4B5B58435004317D
:103928000A480B4B42189A42F6D30A4A02E000238F
:1039380042F8043B084B9A42F9D300F011F8FCF71F
:10394800A3FF704700800410103A10080000001010
:10395800100000101000001058030010FEE70000CF
:1039680070B50D4E0D4CA41BA4100025A54209D11D
:103978000B4E0C4C00F018F8A41BA4100025A5420F
:1039880005D170BD56F8253098470135EEE756F851
:10399800253098470135F2E7083A1008083A100828
:1039A800083A10080C3A1008F8B500BFF8BC08BC73
:1039B8009E467047F8B500BFF8BC08BC9E467047E5
:1039C80000000000010203040102030406070809BD
:1039D800010002000400060008000A000C001000A4
:1039E80020004000800000010101010307010000E0
:0839F8000804020408010101AA
:083A000008C9FF7F010000006E
:043A0800BD021008E3
:043A0C009902100803
:103A10000090D0030090D0030100000010000000CF
:040000050810391591
:00000001FF
:020000040800F2
:1000000000000220F97D00084D0E00084F0E000888
:10001000510E0008530E0008550E000800000000A5
:10002000000000000000000000000000570E000863
:10003000590E0008000000005B0E00085D0E00086D
:10004000497E0008497E0008497E0008497E000874
:10005000497E0008497E0008497E0008497E000864
:10006000497E0008497E0008497E0008497E000854
:10007000497E0008497E0008497E0008497E000844
:10008000497E0008497E0008497E0008497E000834
:10009000497E0008497E0008497E0008497E000824
:1000A000497E0008497E0008497E0008497E000814
:1000B000497E0008497E0008497E0008497E000804
:1000C000497E0008497E0008497E0008650E000848
:1000D000497E0008497E0008497E0008497E0008E4
:1000E000497E0008497E000800000000497E0008A3
:1000F000497E0008497E0008497E0008497E0008C4
:10010000497E0008497E0008497E0008497E0008B3
:10011000497E0008497E0008497E0008497E0008A3
:10012000497E0008497E0008497E0008497E000893
:10013000497E0008497E0008497E0008497E000883
:10014000497E0008497E0008000000000000000011
:10015000497E0008497E0008497E0008497E000863
:10016000497E0008497E0008497E0008497E000853
:10017000497E0008750E0008497E00080000000056
:10018000497E0008497E0008497E0008497E000833
:10019000497E0008497E0008497E0008497E000823
:1001A000497E0008497E0008497E0008497E000813
:1001B000497E0008497E0008497E0008497E000803
:1001C000497E0008497E0008497E0008497E0008F3
:1001D000497E0008850E0008497E0008497E000817
:1001E000497E0008497E0008497E0008497E0008D3
:1001F000497E0008497E0008497E0008497E0008C3
:10020000497E0008497E0008497E0008497E0008B2
:10021000497E0008497E0008497E0008497E0008A2
:10022000497E0008497E0008497E00080000000061
:10023000497E0008497E0008497E0008497E000882
:10024000497E0008497E0008497E0008497E000872
:10025000497E0008497E0008497E0008497E000862
:10026000497E0008497E0008497E0008497E000852
:10027000497E0008497E0008497E0008497E000842
:10028000497E0008497E0008497E00080000000001
:08029000497E0008497E0008C8
:1002980010B5054C237833B9044B13B10448AFF3B8
:1002A80000800123237010BD3803002000000000E7
:1002B8004480000808B5034B1BB103490348AFF35A
:1002C800008008BD000000003C03002044800008B6
:1002D80053B94AB9002908BF00281CBF4FF0FF31A5
:1002E8004FF0FF3000F072B9ADF1080C6DE904CEA3
:1002F80000F006F8DDF804E0DDE9022304B07047F9
:100308002DE9F047089E04468846002B4BD18A42C7
:10031800154667D9B2FA82F24AB1C2F1200701FA4A
:1003280002F320FA07F7954047EA030894404FEA9A
:10033800154E230CB8FBFEF71FFA85FC0EFB178839
:1003480043EA084307FB0CF1994209D9EB1807F176
:10035800FF3080F01B81994240F21881023F2B4404
:100368005B1AA4B2B3FBFEF00EFB103344EA03445D
:1003780000FB0CFCA44509D92C1900F1FF3380F0CF
:100388000781A44540F2048102382C4440EA074022
:10039800A4EB0C0400271EB1D4400023C6E9004397
:1003A8003946BDE8F0878B4209D9002E00F0EB8072
:1003B8000027C6E9000138463946BDE8F087B3FA98
:1003C80083F7002F47D18B4202D3824200F2FA8092
:1003D800841A61EB030301209846002EE0D0C6E999
:1003E8000048DDE702B9FFDEB2FA82F2002A40F0E7
:1003F8008F80491B4FEA154E1FFA85F80127B1FB7C
:10040800FEFC230C0EFB1C1143EA014308FB0CF114
:10041800994207D9EB180CF1FF3002D2994200F249
:10042800CD808446591AA3B2B1FBFEF00EFB10141E
:1004380043EA044408FB00F8A04507D92C1900F149
:10044800FF3302D2A04500F2B6801846A4EB080498
:1004580040EA0C409FE7C7F1200CBB4022FA0CFE93
:100468004EEA030E01FA07F420FA0CF521FA0CF310
:100478004FEA1E482543B3FBF8F92C0C08FB193347
:100488001FFA8EFA44EA034309FB0AF49C4202FA73
:1004980007F200FA07F10BD91EEB030309F1FF304D
:1004A80080F087809C4240F28480A9F1020973445D
:1004B8001B1BADB2B3FBF8F008FB103345EA03444D
:1004C80000FB0AFAA24508D91EEB040400F1FF3329
:1004D8006BD2A24569D90238744440EA0940A0FBAE
:1004E8000289A4EB0A044C45C2464B4654D351D06A
:1004F800002E69D0B1EB0A0564EB030404FA0CFC86
:10050800FD40FC404CEA0505C6E90054002747E7D2
:10051800C2F1200320FA03F7954001FA02F021FA0C
:1005280003F34FEA154E3843010CB3FBFEF71FFAED
:1005380085F80EFB173341EA034107FB08F38B42AA
:1005480004FA02F407D9691807F1FF3C2FD28B424D
:100558002DD9023F2944CB1A81B2B3FBFEF00EFB22
:10056800103341EA034100FB08F38B4207D96918AD
:1005780000F1FF3C17D28B4215D902382944C91A19
:1005880040EA07473BE73746304609E70746E7E6CC
:100598001846FBE64145ABD2B8EB020A69EB0E02FE
:1005A80001381346A4E76046E9E7184695E7674629
:1005B800D1E781467CE702382C4447E7ACF1020CCE
:1005C8002B442FE7384608E73746E9E6704700BF6F
:1005D8002DE9F04F91B000240B940C940D940E94D7
:1005E8000F94804BD3F8E02042F00402C3F8E020D7
:1005F800D3F8E02002F004020192019AD3F8E02037
:1006080042F02002C3F8E020D3F8E02002F02002F4
:100618000292029AD3F8E02042F08002C3F8E02068
:10062800D3F8E02002F080020392039AD3F8E02086
:1006380042F00102C3F8E020D3F8E02002F0010202
:100648000492049AD3F8E02042F04002C3F8E02074
:10065800D3F8E02002F040020592059AD3F8E02092
:1006680042F01002C3F8E020D3F8E02002F01002B4
:100678000692069AD3F8E02042F00202C3F8E0207E
:10068800D3F8E02002F002020792079AD3F8E0209C
:1006980042F00802C3F8E020D3F8E02002F0080294
:1006A8000892089AD3F8E02042F40072C3F8E020D8
:1006B800D3F8E02002F400720992099AD3F8E020F6
:1006C80042F48062C3F8E020D3F8E03003F480639A
:1006D8000A930A9B444F22464FF40041384601F0E2
:1006E800F3FADFF810B1224643F6FC01584601F050
:1006F800EBFADFF804A122464FF47061504601F08E
:10070800E3FADFF8F89022460721484601F0DCFAC0
:10071800364E224644F68861304601F0D5FADFF8B5
:10072800E08022464FF40071404601F0CDFA47F2CE
:10073800F2330B930C940D940BA9384601F0D4F9BD
:100748004FF400430B9301250C950D940E940BA9BF
:10075800384601F0C9F94FF481730B930C940D944A
:100768000BA9234801F0C0F943F6FC030B930C9541
:100778000D940E940BA9584601F0B6F94FF4706326
:100788000B930C950D940E940BA9504601F0ACF9FF
:1007980007230B930C950D940E940BA9484601F072
:1007A800A3F944F688630B930C950D940E940BA94A
:1007B800304601F099F94FF440530B930C940D9483
:1007C8000BA9304601F090F94FF400730B930C9588
:1007D8000D940E940BA9404601F086F911B0BDE8BE
:1007E800F08F00BF00440258000802580018025851
:1007F80000000258000C0258002402580028025831
:100808000004025800B589B00F48104B036001235B
:100818004360002282600823C360102303614021E3
:10082800416180218161C2610262426282620193F8
:1008380002930393049305930693079301A903F086
:1008480047FF09B05DF804FBDC040020404100527A
:1008580008B50848084B0360FF2343600122826003
:100868000023C360026143618361C361036202F0D4
:1008780079F908BD100500200050005208B50F484E
:100888000F4B03600023436083600722C26003614B
:1008980043618361036243628362C3624363836328
:1008A8004FF4F072C263036443648364C3640365F2
:1008B8004365836503F0A4FF08BD00BF540400200E
:1008C8000030014038B5104C104B23604FF4E13331
:1008D80063600025A560E56025610C236361A5615F
:1008E800E56125626562A562204604F070FD29462F
:1008F800204604F0F8FD2946204604F019FE20465B
:1009080004F0D2FD38BD00BFC8030020001001402C
:1009180038B50D4C0D4B23600D4B63600025A56069
:100928000123E36025616561A561E56125622046D3
:1009380001F0E8F92946204601F042FA2946204606
:1009480001F06CFA38BD00BF7C0300200054004061
:10095800DB3FB0002DE9F043CDB04C22002139A88F
:1009680007F0AAFA2022002131A807F0A5FABC2234
:10097800002102A807F0A0FA022002F079F800236B
:100988000193394B9A6942F440429A619B6903F496
:1009980040430193354BDA6A42F00102DA62DB6ABE
:1009A80003F001030193019B2F4B9B6913F4005F34
:1009B800FAD02F4A936A23F0030343F002039362A9
:1009C8004FF00309CDF8E4904FF480333A930123B4
:1009D8003C9340263D960223429343934FF00508EB
:1009E800CDF81081C0274597469308254795489527
:1009F800499500244A944B9439A802F009F93F23F9
:100A08003193CDF8C89033943495359636964FF493
:100A1800806337933896042131A802F013FD154BF3
:100A28000293CDF82C800C970D9514230E930F95F7
:100A38004FF4006310931194129413941494169421
:100A480019941A941F94209422944FF4001323931A
:100A58004FF400332A930DEB050002F08FFF02F0EC
:100A680051F84DB0BDE8F083004802580004005822
:100A7800004402580B300C8300B583B04FF6FF7367
:100A880000E013461E4A126812F4004F02D05A1EA4
:100A9800002BF6DC00F01CFEFFF75CFF184BD3F8C8
:100AA800E02042F00072C3F8E020D3F8E03003F011
:100AB80000730193019B002001F00CF90021084606
:100AC80001F018F94FF6FF7300E013460C4A12685C
:100AD80012F4004F02D15A1E002BF6DCFFF778FD06
:100AE800FFF790FEFFF7B4FEFFF7C8FEFFF7EAFE38
:100AF80000F0F0F9FFF70CFF00F0C8F9FEE700BFBF
:100B08000044025870470000F0B587B000230193F5
:100B180002930393049305932B4B1B680BB107B007
:100B2800F0BD0127284B1F60284BD3F8D42042F48E
:100B38008052C3F8D420D3F8D43003F48053009300
:100B4800009B4FF63F030193022602960325049566
:100B58000C24059401A91E4800F0C6FF01970296CF
:100B6800002703970495059401A91A4800F0BCFFD3
:100B780048F237130193029603970495059401A947
:100B8800154800F0B1FF4FF683730193029603975F
:100B98000495059401A9114800F0A6FF4CF20373CF
:100BA8000193029603970495059401A90C4800F057
:100BB8009BFF60230193029603970495059401A96E
:100BC800084800F091FFAAE75403002000440258A7
:100BD8000014025800080258001802580010025861
:100BE800000C02580004025882B0074BD3F8F420D6
:100BF80042F00202C3F8F420D3F8F43003F0020301
:100C08000193019B02B070470044025810B588B0A8
:100C18000023039304930593069307930268154BE7
:100C28009A4201D008B010BD134CD4F8E03043F01C
:100C38000203C4F8E030D4F8E03003F00203019373
:100C4800019B4FF4C0730393122304930423079367
:100C580003A90A4800F048FFD4F8E83043F4001329
:100C6800C4F8E830D4F8E83003F400130293029B88
:100C7800D8E700BF0054004000440258000402585E
:100C8800F0B589B000230393049305930693079363
:100C98000268274B9A4201D009B0F0BD254BD3F822
:100CA800D42042F48042C3F8D420D3F8D42002F4EC
:100CB80080420092009AD3F8E02042F02002C3F864
:100CC800E020D3F8E02002F020020192019AD3F844
:100CD800E02042F04002C3F8E020D3F8E03003F00F
:100CE80040030293029B4FF49863039302250495F3
:100CF80009230793104F03A9384600F0F5FE4FF477
:100D08004073039304950024059406940A260796D5
:100D180003A9384600F0E8FE4023039304950594A0
:100D28000694079603A9054800F0DEFEB4E700BF65
:100D3800005000520044025800140258001802588B
:100D480000B589B000230393049305930693079392
:100D58000268194B9A4202D009B05DF804FB174BA0
:100D6800D3F8F02042F48052C3F8F020D3F8F020F2
:100D780002F480520192019AD3F8E02042F0010275
:100D8800C3F8E020D3F8E03003F001030293029B9C
:100D9800F0230393022304930523079303A9084828
:100DA80000F0A2FE00221146232000F0FDFC2320C3
:100DB80000F02CFDD0E700BF00300140004402588D
:100DC8000000025800B589B00023039304930593EB
:100DD80006930793026803F1804303F588339A4228
:100DE80002D009B05DF804FB124BD3F8F02042F0B2
:100DF8001002C3F8F020D3F8F02002F0100201929C
:100E0800019AD3F8E02042F00102C3F8E020D3F8B9
:100E1800E03003F001030293029B4FF4C063039395
:100E2800022304930723079303A9034800F05CFEF9
:100E3800D7E700BF004402580000025808B5FFF782
:100E480063FE08BD7047FEE7FEE7FEE7FEE7704772
:100E58007047704708B500F069FC08BD08B502483E
:100E680003F07AFD08BD00BF5404002008B502480D
:100E780001F0CCF908BD00BF6421002008B5024884
:100E880001F0C4F908BD00BF6C25002008B503496E
:100E9800034806F0A7FF034B187008BD5C05002047
:100EA8000400002060050020024B01221A70187807
:100EB800704700BF00000020024B01221A7018780A
:100EC800704700BF000000200020704700207047D6
:100ED8000120704708B501222049214806F045FA4B
:100EE80020BB20491E4806F05CFA10BB1E491C486E
:100EF80005F0DAFB00BB1A4806F067FAF8B90022D9
:100F08001A491B4806F031FAE0B91A49184806F0A0
:100F180048FAD0B91849164805F091FAC0B91448EA
:100F280006F053FAB8B901F0EDFD08BDFFF7EAFD88
:100F3800D7E7FFF7E7FDD9E7FFF7E4FDDBE7FFF7C2
:100F4800E1FDDCE7FFF7DEFDDFE7FFF7DBFDE1E7CB
:100F5800FFF7D8FDE3E7FFF7D5FDE4E774000020CD
:100F6800940C002058020020AC00002090000020C3
:100F7800C4090020B4010020180000200020704798
:100F8800002070470020704710B5054C01462046E8
:100F980005F064FA204605F067FA002010BD00BF8E
:100FA800C409002010B5064C00220649204605F069
:100FB8004DFA0549204605F051FA002010BD00BF42
:100FC800C409002064170020640F002012230B803E
:100FD800004870472C00002004230B80004870470D
:100FE8004000002012230B80004870474400002076
:100FF80004230B80004870474000002000239342E0
:1010080016D230B40BE0373401F8134000015C000D
:10101800013400250D550133DBB2934206D2040F8B
:10102800092CF0D8303401F81340EFE730BC704792
:101038007047000038B50B4B186804331C6804333C
:101048001B68C01800D138BD074D082205F12E01D4
:10105800FFF7D4FF042205F13E012046FFF7CEFF3B
:10106800F1E700BF00E8F11F2C00002008B51A23A3
:101078000B80FFF7DFFF014808BD00BF58000020C4
:1010880008B51A230B80FFF7D5FF014808BD00BF3C
:101098005800002008B50A4628B10549054806F059
:1010A8001FFE034808BD0249024806F019FEF8E78A
:1010B800641F0020B880000810B5044C0A46214679
:1010C800034806F00DFE204610BD00BF641F002037
:1010D800CC80000808B50A4628B10549054806F03D
:1010E800FFFD034808BD0249024806F0F9FDF8E78C
:1010F800641F0020E080000808B50A4628B10549A9
:10110800054806F0EDFD034808BD0249024806F00F
:10111800E7FDF8E7641F0020EC80000808B50A46E0
:1011280028B10549054806F0DBFD034808BD02491A
:10113800024806F0D5FDF8E7641F0020FC8000088F
:1011480010B5044C0A462146034806F0C9FD20465E
:1011580010BD00BF641F0020CC80000808B50A46F7
:1011680028B10549054806F0BBFD034808BD0249FA
:10117800024806F0B5FDF8E7641F00201481000856
:1011880008B50A4628B10549054806F0A9FD0348EF
:1011980008BD0249024806F0A3FDF8E7641F0020D5
:1011A80020810008002070474FF480330B604FF413
:1011B800007313800020704700207047002070479C
:1011C80000207047002070470020704770B58AB033
:1011D8000023059306930793089309930368334AFA
:1011E800934204D0324A93422ED00AB070BD314C9B
:1011F800D4F8E03043F00103C4F8E030D4F8E0302C
:1012080003F001030193019B4FF4C053059302239C
:1012180006930A23099305A9274800F065FCD4F82A
:10122800D83043F00063C4F8D830D4F8D83003F08D
:1012380000630293029B00221146652000F0B4FA75
:10124800652000F0E3FAD0E71A4CD4F8E03043F018
:101258000203C4F8E030D4F8E03003F0020303934B
:10126800039B0AAD4FF4005345F8143D134E29462D
:10127800304600F039FC4FF44043059302230693AF
:101288000023079308930C2309932946304600F05E
:101298002BFCD4F8D83043F00073C4F8D830D4F815
:1012A800D83003F000730493049B9EE700000840C5
:1012B800000004400044025800000258000402588C
:1012C80008B500F57171D0F8040406F093F808BD6C
:1012D80008B5C1EBC10293000344D3F80822D0F843
:1012E800040406F0B3F808BD08B5C1EBC1029300C9
:1012F80003449A6CD0F8040406F0E1F808BD08B578
:10130800D0F8040406F076F908BD10B50446C368A1
:101318002BB1022B0DD0FFF7F5FB012100E00021D6
:10132800D4F8040406F04FF9D4F8040406F022F9BE
:1013380010BD0121F4E7000010B50446D0F80404FC
:1013480006F044F92268D2F8003E43F00103C2F8DF
:10135800003E236A23B1034A136943F0060313616D
:1013680010BD00BF00ED00E008B5D0F8040406F099
:1013780036F908BD08B5D0F8040406F04BF908BDE5
:1013880008B5D0F8040406F043F908BD08B5D0F84C
:10139800040406F041F908BD08B5D0F8040406F0C5
:1013A8003DF908BD38B50446037823B12378012BED
:1013B8002BD0002038BD2C48C0F80444C4F8C4021F
:1013C8002A4B0360092343600222C26000230361A1
:1013D8008261C361036243628362C362036300F094
:1013E800B3FD78B9204D8021284601F027FB402223
:1013F8000021284601F0FEFA80220121284601F04A
:10140800F9FAD3E7FFF77EFBECE71948C0F8044484
:10141800C4F8C402174B0360092343600222C26068
:10142800002303618261C361036243620122826215
:10143800C2620363436300F087FD88B90C4C4FF424
:101448000071204601F0FAFA80220021204601F0BE
:10145800D1FA4FF4BA720121204601F0CBFAA8E77D
:10146800FFF750FBEAE700BF6C25002000000840AA
:101478006421002000000440D0F8C43211F0800F2D
:1014880008D101F07F01C1EBC1018A00134493F830
:10149800FE01704701F07F01C1EBC1018A001344CE
:1014A80093F83E00704708B5D0F8C40201F0DCF9A3
:1014B80008BD18B1022803D00320704700207047E8
:1014C8000120704708B5D0F8C40200F0D5FDFFF739
:1014D800F0FF08BD10B51C4613462246D0F8C402DA
:1014E80001F01CF9FFF7E5FF10BD08B5D0F8C402FC
:1014F80001F055F9FFF7DDFF08BD08B5D0F8C402C3
:1015080001F05DFAFFF7D5FF08BD08B5D0F8C402B1
:1015180001F0DDF9FFF7CDFF08BD08B5D0F8C4022A
:1015280001F016FAFFF7C5FF08BD08B5D0F8C402E8
:1015380001F0E0F8FFF7BDFF08BD08B5D0F8C40218
:1015480001F09BF9FFF7B5FF08BD08B5D0F8C40254
:1015580001F05CF9FFF7ADFF08BD000008B50346D0
:101568000B4A126842B10A4A106803446A46934219
:1015780006D8074A136008BD054A06491160F2E714
:1015880006F060FC0C2303604FF0FF30F3E700BF68
:101598005C030020802900202E4BD3F8882042F4D9
:1015A8007002C3F888201A6942F010021A612A4BA7
:1015B8001B6803F00F03062B06D8274A136823F08D
:1015C8000F0343F007031360244B1A6842F001022B
:1015D8001A6000221A611968214A0A401A601E4BD3
:1015E8001B6803F00F03072B06D91B4A136823F067
:1015F8000F0343F007031360184B00229A61DA6166
:101608001A62184999621849D962184919635A63C4
:101618009963DA6319645A64196821F4802119609E
:101628001A66134A536A43F480435362114B1A688B
:10163800114B1340B3F1005F02D2104B01221A6024
:101648000F4B43F2D2021A60024B4FF000629A60CD
:10165800704700BF00ED00E000200052004402582F
:101668007FEDF6EA000202020000FF01800201019C
:10167800C00000580010005C0000FFFF0881005106
:1016880000400052104B1B780BB90120704710B571
:1016980004464FF47A70B0FBF3F30C4A1068B0FBC1
:1016A800F3F000F0C1F868B90F2C01D901200AE065
:1016B800002221464FF0FF3000F076F8024B5C60C4
:1016C800002000E0012010BDD4000020D000002040
:1016D80010B5032000F056F801F0BEFD0F498B69E4
:1016E800C3F303230E4AD35C03F01F03D8408B696E
:1016F80003F00F03D35C03F01F0320FA03F3094A36
:101708001360094B18600020FFF7BCFF10B10124DB
:10171800204610BD0446FFF767FAF9E7004402586F
:1017280080800008CC000020D0000020034B1B78EC
:10173800034A11680B441360704700BFD4000020AF
:1017480074290020014B1868704700BF74290020D5
:1017580038B50446FFF7F6FF0546B4F1FF3F02D05F
:10176800044B1B781C44FFF7EDFF401BA042FAD343
:1017780038BD00BFD4000020014B1868000C70472A
:101788000010005C0649CB6823F4E0631B041B0CC3
:10179800000200F4E0600343024A1A43CA6070473B
:1017A80000ED00E00000FA0530B4154BDB68C3F328
:1017B8000223C3F10704042C28BF04241D1D062D91
:1017C80014D9033B4FF0FF3505FA04F421EA04016C
:1017D800994005FA03F322EA03031943002807DBBB
:1017E8000901C9B2074B195430BC70470023E9E717
:1017F80000F00F000901C9B2034B1954F4E700BF08
:1018080000ED00E000E400E014ED00E0002807DB54
:1018180000F01F02400901239340024A42F8203099
:10182800704700BF00E100E00138B0F1807F0AD2C4
:10183800064B5860064AF02182F823100020986071
:1018480007221A6070470120704700BF10E000E0CF
:1018580000ED00E0002800F03A8108B5024690F853
:101868003530DBB2022B03D080234365012008BD4D
:101878000368994899498B4218BF83420CBF0121DC
:10188800002100F0E4803030834200F0E08018301E
:10189800834200F0DC801830834200F0D880183092
:1018A800834200F0D4801830834200F0D080183092
:1018B800834200F0CC8000F55670834200F0C78068
:1018C8001830834200F0C3801830834200F0BF8094
:1018D8001830834200F0BB801830834200F0B78094
:1018E8001830834200F0B3801830834200F0AF8094
:1018F8001830834200F0AB80196821F00E0119609E
:101908001368A0F5956075498B4218BF83422BD0A8
:1019180073498B4228D018318B4225D018318B421D
:1019280022D018318B421FD018318B421CD018316D
:101938008B4219D001F556718B4215D018318B4264
:1019480012D018318B420FD018318B420CD018317D
:101958008B4209D018318B4206D018318B4203D004
:1019680018318B4240F0AE80196821F001011960EE
:101978001368594859498B4218BF834242D01831DD
:101988008B423FD018318B423CD018318B4239D032
:1019980018318B4236D018318B4233D018318B42F4
:1019A80030D001F556718B422CD018318B4229D09A
:1019B80018318B4226D018318B4223D018318B42F4
:1019C80020D018318B421DD018318B421AD01831D3
:1019D8008B4217D043498B4214D014318B4211D01B
:1019E80014318B420ED014318B420BD014318B4200
:1019F80008D014318B4205D014318B4202D01431F7
:101A08008B4217D1116E0B6823F480730B60906DB5
:101A1800D36D03F01F0101238B404360536E916E19
:101A28005960D36E33B1196821F480711960136F4E
:101A3800516F5960002382F83430012382F8353021
:101A4800136D002B45D01046984700200FE704205F
:101A580082F8350081BB224A93422DD01832934236
:101A68002AD01832934227D01832934224D0183201
:101A7800934221D0183293421ED002F556729342F7
:101A88001AD01832934217D01832934214D0183211
:101A9800934211D0183293420ED0183293420BD091
:101AA8001832934208D01832934205D01A6822F0AF
:101AB80001021A600020DAE61A6822F001021A60B0
:101AC8000020D4E6196821F00101196050E70120CF
:101AD80070470020CBE600BF1000024028000240FB
:101AE8004000024008540258F0B583B000233AE0A1
:101AF800092400E00024B4403C4302356E4E46F809
:101B080025406E4C2568D44304EA05064F6817F44F
:101B1800803F01D042EA0506684D2E606E6804EAEF
:101B280006054F6817F4003F01D042EA0605634EE8
:101B380075604FF0B0452D6804EA05064F6817F444
:101B4800801F01D042EA05064FF0B0452E606D684F
:101B58002C404E6816F4001F01D042EA05044FF0ED
:101B6800B042546001330A6832FA03F400F0A280EC
:101B780001249C402240F5D04D686E1E112D18BFDF
:101B8800012E01D9122D12D186685F000325BD40B0
:101B980026EA0506CD68BD4035438560466826EAD5
:101BA80004064D68C5F300149C4034434460C6687D
:101BB8005F000325BD40EC4326408D68BD4035439A
:101BC800C5604D68122D18BF022D13D1DE080836E6
:101BD80050F826E003F007054FEA850C0F2505FAB3
:101BE8000CF52EEA050E0D6905FA0CF545EA0E0509
:101BF80040F82650056825404C6804F00304BC40B2
:101C08002C4304604C6814F0805FABD02C4CD4F8A3
:101C1800F45045F00205C4F8F450D4F8F44004F048
:101C280002040194019C9D08AE1C234C54F82670B4
:101C380003F00304A6000F24B44027EA0407214C4C
:101C4800A0423FF457AF04F58064A04222D004F5C7
:101C58008064A04220D004F58064A0421ED004F520
:101C68008064A0421CD004F58064A0421AD004F518
:101C78008064A04218D004F58064A04216D004F510
:101C88008064A04214D004F58064A0423FF430AFD1
:101C98000A2430E701242EE702242CE703242AE74C
:101CA800042428E7052426E7062424E7072422E756
:101CB800082420E703B0F0BD000400588000005855
:101CC800004402580000025812B9090481617047A3
:101CD800816170472030054B53F82020044B9A420D
:101CE80001D0012070470020704700BF00640258EF
:101CF8000003008041F44071014B43F82010704705
:101D080000640258002857D010B5044690F84130B6
:101D1800002B41D0242384F841302268136823F033
:101D2800010313606368226823F0706313612268FB
:101D3800936823F400439360E368012B31D0A368D0
:101D4800226843F404439360E368022B2FD022688F
:101D580051681A4B0B4353602268D36823F400433D
:101D6800D360236962691343A169226843EA0123A6
:101D7800D360E369216A22680B4313602268136801
:101D880043F00103136000206064202384F841308D
:101D9800206384F8420010BD80F84030FEF736FF1B
:101DA800B8E7A368226843F400439360CCE723684C
:101DB8004FF400625A60CAE70120704700800002B1
:101DC80090F84130DBB2202B24D190F84030012B21
:101DD80022D0012380F84030242380F84130026863
:101DE800136823F0010313600268136823F4805317
:101DF800136002681368194311600268136843F09E
:101E080001031360202380F84130002380F840301C
:101E180018467047022070470220704790F84130FA
:101E2800DBB2202B22D190F84030012B20D00123A7
:101E380080F84030242380F841300268136823F08A
:101E4800010313600268136823F4706343EA0121F5
:101E580011600268136843F001031360202380F8BF
:101E68004130002380F84030184670470220704700
:101E7800022070472DE9F04782B00768CA00521A5D
:101E8800930003445A6D1B6D9A4257D8B8469B1A63
:101E9800C1EBC104A2000244526C9A4200D31A4614
:101EA8000C46064602F1030A4FEA9A0A16E009F1BF
:101EB800030A4FEA9A0AE3001B1B9D003544A96CEC
:101EC800337C00931FFA89F3E2B2384603F01EFF11
:101ED800AB6C4B44AB646B6D4B446B6508EB4413C4
:101EE80003F510639B699BB2534513D3E3001B1B97
:101EF8009A003244516D136D99420BD253B15B1A5B
:101F0800C4EBC4018A003244D2F844909945CED338
:101F18009946CCE7E3001B1B98000644326D736DAD
:101F28009A420FD804F00F040121A140D7F8344891
:101F380024EA0104C7F83448002000E0012002B078
:101F4800BDE8F0870020FAE7F0B58BB0002800F074
:101F580091800446056890F8BD3323B3032384F8C1
:101F6800BD33EB6B13F4807F01D10023236120681C
:101F780003F06AFC254655F8107B6E460FCD0FC658
:101F88000FCD0FC695E8030086E80300231D0ECB8E
:101F9800384603F097FB58B1022384F8BD33012576
:101FA80028460BB0F0BD80F8BC33FFF70FF9D5E732
:101FB8000021206803F04EFC002315E0D900C81A60
:101FC80082002244012082F83D0082F83C30A2F8C9
:101FD8004230002082F83F0050649064CA1A910091
:101FE800214408650133DBB26568AB42E6D30023C0
:101FF80015E0D800C11A8A002244002182F8FD1198
:1020080082F8FC3182F8FF11C2F80412C2F80812F3
:10201800C21A90002044C0F810120133DBB29D426E
:10202800E7D8254655F8107B6E460FCD0FC60FCD65
:102038000FC695E8030086E80300231D0ECB38463B
:1020480003F04EFC054660B9002384F838300123BC
:1020580084F8BD33636A012B08D0206804F001F8C6
:102068009EE7022384F8BD33012599E7204600F056
:10207800E9FCF2E7012593E7026890F8BC33012BED
:1020880019D010B5012380F8BC33836A012B0AD01C
